:020000040800F2
:1000000000000320E50A0008C5090008D30900081C
:10001000D9090008DF090008E50900080000000010
:10002000000000000000000000000000EB090008D4
:10003000F909000800000000070A0008150A000876
:10004000350B0008350B0008350B0008350B000890
:10005000350B0008350B0008350B0008350B000880
:10006000350B0008350B0008350B0008350B000870
:10007000350B0008350B0008350B0008350B000860
:10008000350B0008350B0008350B0008350B000850
:10009000350B0008350B0008350B0008350B000840
:1000A000350B0008350B0008350B0008350B000830
:1000B000350B0008350B0008350B0008350B000820
:1000C000350B0008350B0008350B0008350B000810
:1000D000350B0008390A0008350B0008350B0008FD
:1000E000350B0008350B0008350B0008350B0008F0
:1000F000350B0008350B0008350B0008350B0008E0
:10010000350B0008350B0008350B0008350B0008CF
:10011000350B0008350B0008350B00084D0A0008A8
:10012000350B0008350B0008350B0008350B0008AF
:10013000350B0008350B0008350B0008350B00089F
:10014000350B0008350B0008350B0008350B00088F
:10015000350B0008350B0008350B0008350B00087F
:10016000350B0008350B0008350B0008350B00086F
:10017000350B0008350B0008350B000800000000A7
:10018000350B0008350B0008350B0008350B00084F
:10019000350B0008350B0008350B0008350B00083F
:0C01A000350B0008350B0008350B00087B
:1001B00010B5054C237833B9044B13B10448AFF3A1
:1001C00000800123237010BD70000020000000009B
:1001D000B038000808B5034B1BB103490348AFF31F
:1001E000008008BD0000000074000020B038000846
:1001F00001F0FF01102A2BDB10F0070F08D010F8D8
:10020000013B013A8B422DD010F0070F42B3F6D1DB
:10021000F0B441EA012141EA014122F007047FF0F4
:1002200000070023F0E80256083C85EA010586EA4B
:10023000010685FA47F5A3FA87F586FA47F6A5FA87
:1002400087F68EB9EED1F0BC01F0FF0102F0070293
:1002500032B110F8013B013A83EA010313B1F8D13E
:100260000020704701387047002D06BF354603381F
:10027000073815F0010F07D1013015F4807F02BF58
:10028000013015F4C03F0130F0BC0138704700BFA9
:1002900053B94AB9002908BF00281CBF4FF0FF31ED
:1002A0004FF0FF3000F074B9ADF1080C6DE904CEE9
:1002B00000F006F8DDF804E0DDE9022304B0704741
:1002C0002DE9F047089D04468E46002B4DD18A4209
:1002D000944669D9B2FA82F252B101FA02F3C2F13C
:1002E000200120FA01F10CFA02FC41EA030E9440CD
:1002F0004FEA1C48210CBEFBF8F61FFA8CF708FBEE
:1003000016E341EA034306FB07F199420AD91CEBC5
:10031000030306F1FF3080F01F81994240F21C81F7
:10032000023E63445B1AA4B2B3FBF8F008FB10333F
:1003300044EA034400FB07F7A7420AD91CEB040474
:1003400000F1FF3380F00A81A74240F20781644444
:10035000023840EA0640E41B00261DB1D4400023C9
:10036000C5E900433146BDE8F0878B4209D9002D2D
:1003700000F0EF800026C5E9000130463146BDE8B7
:10038000F087B3FA83F6002E4AD18B4202D3824221
:1003900000F2F980841A61EB030301209E46002DD0
:1003A000E0D0C5E9004EDDE702B9FFDEB2FA82F225
:1003B000002A40F09280A1EB0C014FEA1C471FFA83
:1003C0008CFE0126200CB1FBF7F307FB131140EA6A
:1003D00001410EFB03F0884208D91CEB010103F137
:1003E000FF3802D2884200F2CB804346091AA4B2F9
:1003F000B1FBF7F007FB101144EA01440EFB00FECD
:10040000A64508D91CEB040400F1FF3102D2A64531
:1004100000F2BB800846A4EB0E0440EA03409CE7D0
:10042000C6F12007B34022FA07FC4CEA030C20FA7D
:1004300007F401FA06F31C43F9404FEA1C4900FA9D
:1004400006F3B1FBF9F8200C1FFA8CFE09FB18111A
:1004500040EA014108FB0EF0884202FA06F20BD98D
:100460001CEB010108F1FF3A80F08880884240F2DD
:100470008580A8F102086144091AA4B2B1FBF9F021
:1004800009FB101144EA014100FB0EFE8E4508D91C
:100490001CEB010100F1FF346CD28E456AD90238A1
:1004A000614440EA0840A0FB0294A1EB0E01A14286
:1004B000C846A64656D353D05DB1B3EB080261EBF4
:1004C0000E0101FA07F722FA06F3F1401F43C5E9CE
:1004D000007100263146BDE8F087C2F12003D84004
:1004E0000CFA02FC21FA03F3914001434FEA1C4746
:1004F0001FFA8CFEB3FBF7F007FB10360B0C43EA38
:10050000064300FB0EF69E4204FA02F408D91CEBE7
:10051000030300F1FF382FD29E422DD902386344E5
:100520009B1B89B2B3FBF7F607FB163341EA034185
:1005300006FB0EF38B4208D91CEB010106F1FF38D4
:1005400016D28B4214D9023E6144C91A46EA0046CB
:1005500038E72E46284605E70646E3E61846F8E65D
:100560004B45A9D2B9EB020864EB0C0E0138A3E7A6
:100570004646EAE7204694E74046D1E7D0467BE787
:10058000023B614432E7304609E76444023842E7FF
:10059000704700BF80B500AF00F0CEFA00F014F84D
:1005A00000F0F2F800F0C6F800F07EF8054B4FF4CA
:1005B0007A721A60034B1B68002BFBD1014B01229E
:1005C0001A60F7E70C01002080B594B000AF07F186
:1005D000200330220021184602F0F4FC07F10C033E
:1005E00000221A605A609A60DA601A610023BB60C8
:1005F0002B4B1B6C2A4A43F080531364284B1B6C13
:1006000003F08053BB60BB6800237B60254B1B68F5
:10061000244A43F440431360224B1B6803F44043D5
:100620007B607B6802233B620123FB6210233B63F8
:100630000223BB630023FB6308233B64B4237B6476
:100640000223BB640423FB6407F12003184600F077
:1006500015FE0346002B01D000F00CF900F0BEFDA2
:100660000346002B01D000F005F90F23FB600223A5
:100670003B6100237B614FF4A053BB614FF4805377
:10068000FB6107F10C030521184601F065F80346EC
:10069000002B01D000F0EEF800BF5037BD4680BD02
:1006A000003802400070004080B582B000AF3B4689
:1006B00000221A605A601D4B1D4A1A601B4B5A22B9
:1006C0005A601A4B00229A60184B4FF4FA72DA60A3
:1006D000164B80229A61154801F01EFA0346002B42
:1006E00001D000F0C7F820233B6000237B603B462D
:1006F00019460E4801F00CFC0346002B01D000F017
:10070000B9F80A4B1B681A68084B1B6842F00102D3
:100710001A60064B1B68DA68044B1B6842F0010242
:10072000DA6000BF0837BD4680BD00BF8C000020E6
:100730000014004080B500AF114B124A1A60104BF4
:100740004FF461225A600E4B00229A600C4B00223B
:10075000DA600B4B00221A61094B0C225A61084BDC
:1007600000229A61064B0022DA61054801F060FC24
:100770000346002B01D000F07DF800BF80BD00BF14
:10078000CC0000200010014080B483B000AF0023F3
:100790007B60094B1B6B084A43F001031363064B54
:1007A0001B6B03F001037B607B6800BF0C37BD4609
:1007B0005DF8047B704700BF00380240B0B592B0CE
:1007C00002AF7860264B1B6849F64042934243D8FB
:1007D000244B07F108041D460FCD0FC42B6823706E
:1007E00007F1190321220021184602F0EBFB1C4BF4
:1007F0001A681D4913465B0013445B000B441B88B9
:100800001C46174B1A68184913465B0013445B00DB
:100810000B4402331B881D46114B1A6812491346BC
:100820005B0013445B000B4404331B8807F1080092
:1008300000932B4622460D4902F0CCFBF863FB6B7C
:100840009AB207F108031946094801F03EFC044B2F
:100850001B680133024A136000BF4037BD46B0BD7C
:1008600010010020DC38000810390008C8380008E2
:10087000CC00002080B400AF00BFBD465DF8047B13
:100880007047000080B483B000AF00237B60104B42
:100890005B6C0F4A43F4804353640D4B5B6C03F471
:1008A00080437B607B6800233B60094B1B6C084ADC
:1008B00043F080531364064B1B6C03F080533B6082
:1008C0003B6800BF0C37BD465DF8047B704700BF36
:1008D0000038024080B584B000AF78607B681B6848
:1008E0000E4A934215D10023FB600D4B1B6C0C4A42
:1008F00043F0200313640A4B1B6C03F02003FB60DE
:10090000FB6800220021372000F063FA372000F056
:100910007CFA00BF1037BD4680BD00BF0014004008
:100920000038024080B58AB000AF786007F1140348
:1009300000221A605A609A60DA601A617B681B684C
:100940001D4A934234D100233B611C4B5B6C1B4A14
:1009500043F010035364194B5B6C03F010033B61CD
:100960003B690023FB60154B1B6B144A43F00103EA
:100970001363124B1B6B03F00103FB60FB684FF426
:10098000C0637B610223BB610023FB6103233B62E5
:1009900007237B6207F114031946094800F072FA35
:1009A00000220021252000F014FA252000F02DFA65
:1009B00000BF2837BD4680BD00100140003802400E
:1009C0000000024080B400AF00BFBD465DF8047B6C
:1009D000704780B400AFFEE780B400AFFEE780B49C
:1009E00000AFFEE780B400AFFEE780B400AF00BF09
:1009F000BD465DF8047B704780B400AF00BFBD46C4
:100A00005DF8047B704780B400AF00BFBD465DF861
:100A1000047B704780B500AF00F0E0F8054B1B6821
:100A2000002B04D0034B1B68013B024A136000BF3C
:100A300080BD00BF0C01002080B500AF024801F06E
:100A400089FB00BF80BD00BFCC00002080B500AF97
:100A5000024801F08CF800BF80BD00BF8C00002070
:100A600080B584B000AF7860114B1B68002B02D1B9
:100A70000F4B104A1A600E4B1B68FB600C4B1A6838
:100A80007B6813446A46934207D902F071FA034621
:100A90000C221A604FF0FF3306E0054B1A687B68A2
:100AA0001344034A1360FB6818461037BD4680BDE7
:100AB000140100203001002080B400AF084BD3F8AF
:100AC0008830074A43F47003C2F88830044B4FF073
:100AD00000629A6000BFBD465DF8047B704700BFAE
:100AE00000ED00E0DFF834D0002103E00C4B5B5850
:100AF000435004310B480C4B42189A42F6D30B4A30
:100B000002E0002342F8043B094B9A42F9D3FFF775
:100B1000D3FF02F033FAFFF73DFD704700000320DA
:100B200034610908000000207000002070000020DF
:100B30002C010020FEE7000080B500AF0E4B1B68C3
:100B40000D4A43F4007313600B4B1B680A4A43F4CD
:100B500080631360084B1B68074A43F4807313607B
:100B6000032000F02BF9002000F008F8FFF78AFEC0
:100B70000023184680BD00BF003C024080B582B013
:100B800000AF7860124B1A68124B1B7819464FF46D
:100B90007A73B3FBF1F3B2FBF3F3184600F043F9B9
:100BA0000346002B01D001230EE07B680F2B0AD8EF
:100BB000002279684FF0FF3000F00BF9064A7B689D
:100BC0001360002300E0012318460837BD4680BDAE
:100BD00000000020080000200400002080B400AFC6
:100BE000064B1B781A46064B1B681344044A1360D5
:100BF00000BFBD465DF8047B704700BF08000020C1
:100C00001801002080B400AF034B1B681846BD4696
:100C10005DF8047B704700BF1801002080B485B0E8
:100C200000AF78607B6803F00703FB600C4BDB6868
:100C3000BB60BA684FF6FF031340BB60FB681A0243
:100C4000BB68134343F0BF6343F40033BB60044A03
:100C5000BB68D36000BF1437BD465DF8047B7047A6
:100C600000ED00E080B400AF044BDB681B0A03F02A
:100C700007031846BD465DF8047B704700ED00E0B1
:100C800080B483B000AF0346FB7197F90730002BA7
:100C90000BDBFB7903F01F02074997F907305B096B
:100CA000012000FA02F241F8232000BF0C37BD46B4
:100CB0005DF8047B704700BF00E100E080B483B0C2
:100CC00000AF03463960FB7197F90730002B0ADB50
:100CD0003B68DAB20C4997F907301201D2B20B44E3
:100CE00083F800230AE03B68DAB20849FB7903F095
:100CF0000F03043B1201D2B20B441A7600BF0C372B
:100D0000BD465DF8047B704700E100E000ED00E0C7
:100D100080B489B000AFF860B9607A60FB6803F016
:100D20000703FB61FB69C3F10703042B28BF0423FE
:100D3000BB61FB690433062B02D9FB69033B00E06E
:100D400000237B614FF0FF32BB6902FA03F3DA4301
:100D5000BB681A407B699A404FF0FF317B6901FA0A
:100D600003F3D9437B680B40134318462437BD4631
:100D70005DF8047B7047000080B582B000AF7860FA
:100D80007B68013BB3F1807F01D301230FE00A4A66
:100D90007B68013B53600F214FF0FF30FFF78EFF60
:100DA000054B00229A60044B07221A600023184664
:100DB0000837BD4680BD00BF10E000E080B582B0BE
:100DC00000AF78607868FFF729FF00BF0837BD469D
:100DD00080BD80B586B000AF0346B9607A60FB7312
:100DE00000237B61FFF73EFF78617A68B968786914
:100DF000FFF78EFF024697F90F3011461846FFF7AE
:100E00005DFF00BF1837BD4680BD80B582B000AF22
:100E10000346FB7197F907301846FFF731FF00BF13
:100E20000837BD4680BD80B582B000AF7860786875
:100E3000FFF7A2FF034618460837BD4680BD80B4C1
:100E400083B000AF78607B6893F83530DBB2022B5B
:100E500004D07B6880225A6501230CE07B68052260
:100E600083F835207B681B681A687B681B6822F052
:100E700001021A60002318460C37BD465DF8047B5A
:100E80007047000080B489B000AF786039600023FB
:100E90007B6100233B610023BB610023FB6177E1A1
:100EA0000122FB6902FA03F37B613B681B687A69E4
:100EB00013403B613A697B699A4240F066813B6826
:100EC0005B68012B0BD03B685B68022B07D03B684B
:100ED0005B68112B03D03B685B68122B30D17B68B9
:100EE0009B68BB61FB695B00032202FA03F3DB43EF
:100EF000BA691340BB613B68DA68FB695B0002FAC0
:100F000003F3BA691343BB617B68BA699A607B6873
:100F10005B68BB610122FB6902FA03F3DB43BA6938
:100F20001340BB613B685B681B0903F00102FB696E
:100F300002FA03F3BA691343BB617B68BA695A606A
:100F40007B68DB68BB61FB695B00032202FA03F389
:100F5000DB43BA691340BB613B689A68FB695B007D
:100F600002FA03F3BA691343BB617B68BA69DA60BA
:100F70003B685B68022B03D03B685B68122B23D174
:100F8000FB69DA087B68083253F82230BB61FB69E1
:100F900003F007039B000F2202FA03F3DB43BA6955
:100FA0001340BB613B681A69FB6903F007039B00B0
:100FB00002FA03F3BA691343BB61FB69DA087B6881
:100FC0000832B96943F822107B681B68BB61FB6972
:100FD0005B00032202FA03F3DB43BA691340BB61EF
:100FE0003B685B6803F00302FB695B0002FA03F3F2
:100FF000BA691343BB617B68BA691A603B685B6876
:1010000003F08053002B00F0C0800023FB60664B90
:101010005B6C654A43F480435364634B5B6C03F43D
:101020008043FB60FB68614AFB699B08023352F80E
:101030002330BB61FB6903F003039B000F2202FA1C
:1010400003F3DB43BA691340BB617B68584A9342A0
:1010500037D07B68574A934231D07B68564A9342D7
:101060002BD07B68554A934225D07B68544A9342E3
:101070001FD07B68534A934219D07B68524A9342EF
:1010800013D07B68514A93420DD07B68504A9342FB
:1010900007D07B684F4A934201D1092312E00A230B
:1010A00010E008230EE007230CE006230AE00523E6
:1010B00008E0042306E0032304E0022302E0012306
:1010C00000E00023FA6902F0030292009340BA693B
:1010D0001343BB613549FB699B080233BA6941F888
:1010E00023203D4B1B68BB613B69DB43BA6913405E
:1010F000BB613B685B6803F48033002B03D0BA69A3
:101100003B691343BB61344ABB691360324B5B6874
:10111000BB613B69DB43BA691340BB613B685B68F9
:1011200003F40033002B03D0BA693B691343BB615E
:10113000294ABB695360284B9B68BB613B69DB4311
:10114000BA691340BB613B685B6803F48013002BF2
:1011500003D0BA693B691343BB611F4ABB69936003
:101160001D4BDB68BB613B69DB43BA691340BB6164
:101170003B685B6803F40013002B03D0BA693B693A
:101180001343BB61144ABB69D360FB690133FB6144
:10119000FB690F2B7FF684AE00BF00BF2437BD462E
:1011A0005DF8047B704700BF003802400038014002
:1011B000000002400004024000080240000C02400F
:1011C000001002400014024000180240001C0240BF
:1011D0000020024000240240003C014080B582B063
:1011E00000AF00237B6000233B60204B1B6C1F4A39
:1011F00043F0805313641D4B1B6C03F080533B6022
:101200003B681B4B01221A60FFF7FCFC786009E089
:10121000FFF7F8FC02467B68D31AB3F57A7F01D951
:1012200003231FE0134B5B6803F48033B3F5803F67
:10123000EED1114B01221A60FFF7E4FC786009E05F
:10124000FFF7E0FC02467B68D31AB3F57A7F01D939
:10125000032307E0074B5B6803F40033B3F5003F5B
:10126000EED1002318460837BD4680BD0038024045
:1012700040000E420070004044000E4280B586B02F
:1012800000AF78607B68002B01D101235EE27B68B0
:101290001B6803F00103002B75D0884B9B6803F09B
:1012A0000C03042B0CD0854B9B6803F00C03082B1C
:1012B00012D1824B5B6803F48003B3F5800F0BD12E
:1012C0007E4B1B6803F40033002B5BD07B685B68AC
:1012D000002B57D1012339E27B685B68B3F5803F6F
:1012E00006D1764B1B68754A43F4803313601DE0CA
:1012F0007B685B68B3F5A02F0CD1704B1B686F4AFD
:1013000043F4802313606D4B1B686C4A43F48033B5
:1013100013600BE0694B1B68684A23F48033136049
:10132000664B1B68654A23F4802313607B685B6807
:10133000002B13D0FFF766FC386108E0FFF762FC72
:1013400002463B69D31A642B01D90323FEE15B4BB0
:101350001B6803F40033002BF0D014E0FFF752FCBD
:10136000386108E0FFF74EFC02463B69D31A642B54
:1013700001D90323EAE1514B1B6803F40033002B2E
:10138000F0D100E000BF7B681B6803F00203002B74
:1013900063D04A4B9B6803F00C03002B0BD0474BE8
:1013A0009B6803F00C03082B1CD1444B5B6803F4CF
:1013B0008003002B16D1414B1B6803F00203002B66
:1013C00005D07B68DB68012B01D00123BEE13B4BDC
:1013D0001B6823F0F8027B681B69DB003749134365
:1013E0000B603AE07B68DB68002B20D0344B012295
:1013F0001A60FFF707FC386108E0FFF703FC0246BC
:101400003B69D31A022B01D903239FE12B4B1B68A5
:1014100003F00203002BF0D0284B1B6823F0F802E6
:101420007B681B69DB00254913430B6015E0244BE7
:1014300000221A60FFF7E6FB386108E0FFF7E2FBE5
:1014400002463B69D31A022B01D903237EE11B4BD1
:101450001B6803F00203002BF0D17B681B6803F0CC
:101460000803002B36D07B685B69002B16D0154B28
:1014700001221A60FFF7C6FB386108E0FFF7C2FBE4
:1014800002463B69D31A022B01D903235EE10B4BC1
:101490005B6F03F00203002BF0D01BE0094B00222E
:1014A0001A60FFF7AFFB38610EE0FFF7ABFB0246B7
:1014B0003B69D31A022B07D9032347E100380240C6
:1014C00000004742800E4742884B5B6F03F00203E7
:1014D000002BEAD17B681B6803F00403002B00F0AB
:1014E00097800023FB75814B1B6C03F08053002B0E
:1014F0000FD10023BB607D4B1B6C7C4A43F08053B3
:1015000013647A4B1B6C03F08053BB60BB680123F0
:10151000FB75774B1B6803F48073002B18D1744B59
:101520001B68734A43F480731360FFF76BFB3861E9
:1015300008E0FFF767FB02463B69D31A022B01D98B
:10154000032303E16A4B1B6803F48073002BF0D084
:101550007B689B68012B06D1644B1B6F634A43F089
:10156000010313671CE07B689B68052B0CD15F4B64
:101570001B6F5E4A43F0040313675C4B1B6F5B4AAF
:1015800043F0010313670BE0584B1B6F574A23F0DE
:1015900001031367554B1B6F544A23F00403136771
:1015A0007B689B68002B15D0FFF72CFB38610AE0A5
:1015B000FFF728FB02463B69D31A41F28832934277
:1015C00001D90323C2E0494B1B6F03F00203002B38
:1015D000EED014E0FFF716FB38610AE0FFF712FBCC
:1015E00002463B69D31A41F28832934201D9032360
:1015F000ACE03E4B1B6F03F00203002BEED1FB7DF2
:10160000012B05D1394B1B6C384A23F080531364EE
:101610007B689B69002B00F09880344B9B6803F03B
:101620000C03082B5CD07B689B69022B41D1314BAA
:1016300000221A60FFF7E6FA386108E0FFF7E2FAE5
:1016400002463B69D31A022B01D903237EE0274BC4
:101650001B6803F00073002BF0D17B68DA697B68AC
:101660001B6A1A437B685B6A9B011A437B689B6A0F
:101670005B08013B1B041A437B68DB6A1B061B49A2
:1016800013434B601B4B01221A60FFF7BBFA386112
:1016900008E0FFF7B7FA02463B69D31A022B01D9DB
:1016A000032353E0114B1B6803F00073002BF0D0B1
:1016B0004BE0104B00221A60FFF7A4FA386108E0F3
:1016C000FFF7A0FA02463B69D31A022B01D9032384
:1016D0003CE0064B1B6803F00073002BF0D134E0B4
:1016E0007B689B69012B07D101232FE00038024062
:1016F0000070004060004742164B5B68FB60FB686F
:1017000003F480027B68DB699A421CD1FB6803F01A
:101710003F027B681B6A9A4215D1FA6847F6C0738C
:1017200013407A68526A93420DD1FB6803F4403249
:101730007B689B6A9A4206D1FB6803F070627B6803
:10174000DB6A9A4201D0012300E0002318461837D3
:10175000BD4680BD0038024080B584B000AF7860DF
:1017600039607B68002B01D10123CCE0684B1B68FA
:1017700003F00F033A689A420CD9654B3A68D2B22B
:101780001A70634B1B6803F00F033A689A4201D04A
:101790000123B8E07B681B6803F00203002B20D014
:1017A0007B681B6803F00403002B05D0594B9B6832
:1017B000584A43F4E05393607B681B6803F00803C6
:1017C000002B05D0534B9B68524A43F4604393600F
:1017D000504B9B6823F0F0027B689B684D49134394
:1017E0008B607B681B6803F00103002B44D07B688F
:1017F0005B68012B07D1474B1B6803F40033002BB8
:1018000019D101237FE07B685B68022B03D07B68E2
:101810005B68032B07D13F4B1B6803F00073002B61
:1018200009D101236FE03B4B1B6803F00203002B3F
:1018300001D1012367E0374B9B6823F003027B68EB
:101840005B68344913438B60FFF7DCF9F8600AE00A
:10185000FFF7D8F90246FB68D31A41F28832934267
:1018600001D903234FE02B4B9B6803F00C027B68EC
:101870005B689B009A42EBD1254B1B6803F00F037A
:101880003A689A420CD2224B3A68D2B21A70204B74
:101890001B6803F00F033A689A4201D0012332E03B
:1018A0007B681B6803F00403002B08D0194B9B686E
:1018B00023F4E0527B68DB68164913438B607B6836
:1018C0001B6803F00803002B09D0124B9B6823F41C
:1018D00060427B681B69DB000E4913438B6000F09C
:1018E00021F802460B4B9B681B0903F00F030A49C2
:1018F000CB5C22FA03F3094A1360094B1B681846B4
:10190000FFF73CF9002318461037BD4680BD00BFE5
:10191000003C024000380240D86009080000002066
:10192000040000202DE9B04F90B000AF00237B638E
:101930000023FB6300233B630023BB63594B9B687D
:1019400003F00C03082B0DD0082B00F2A180002B14
:1019500002D0042B03D09BE0534BBB639BE0534B63
:10196000BB6398E04F4B5B6803F03F037B634D4BD9
:101970005B6803F48003002B28D04A4B5B689B090B
:1019800000223B627A623B6AC3F308000021474BA6
:1019900003FB01F2002300FB03F31344434AA0FBC3
:1019A0000212FA620A46BA62FA6A1344FB627B6B5D
:1019B0000022BB61FA61D7E90623D7E90A01FEF7E5
:1019C00067FC02460B461346FB6353E0354B5B68EE
:1019D0009B0900223B617A613B69C3F3080A4FF01F
:1019E000000B52465B464FF000004FF000015901DA
:1019F00041EAD261500102460B46B2EB0A0863EBA2
:101A00000B094FF000024FF000034FEA891343EA3D
:101A100098634FEA8812B2EB080463EB09054FF0B4
:101A200000024FF00003EB0043EA5473E200144657
:101A30001D4614EB0A033B6045EB0B037B604FF044
:101A400000024FF00003D7E9004529468B022146EA
:101A500043EA915321468A02104619467B6B0022C5
:101A6000BB60FA60D7E90223FEF712FC02460B4680
:101A70001346FB630B4B5B681B0C03F00303013342
:101A80005B003B63FA6B3B6BB2FBF3F3BB6302E0BF
:101A9000054BBB6300BFBB6B18464037BD46BDE876
:101AA000B08F00BF003802400024F40040787D0170
:101AB00080B400AF034B1B681846BD465DF8047B3D
:101AC000704700BF0000002080B500AFFFF7F0FFB7
:101AD0000246054B9B689B0A03F007030349CB5C56
:101AE00022FA03F3184680BD00380240E860090876
:101AF00080B500AFFFF7DCFF0246054B9B685B0B30
:101B000003F007030349CB5C22FA03F3184680BDB8
:101B100000380240E860090880B582B000AF786004
:101B20007B68002B01D101231DE07B6893F83D30D9
:101B3000DBB2002B06D17B68002283F83C2078685A
:101B4000FEF7C8FE7B68022283F83D207B681A6896
:101B50007B6804331946104600F03AF97B6801228D
:101B600083F83D20002318460837BD4680BD80B568
:101B700082B000AF78607B681B681B6903F00203CA
:101B8000022B22D17B681B68DB6803F00203022B67
:101B90001BD17B681B686FF002021A617B6801220F
:101BA0001A777B681B689B6903F00303002B03D043
:101BB000786800F0EEF805E0786800F0E0F8786802
:101BC00000F0F1F87B6800221A777B681B681B69BC
:101BD00003F00403042B22D17B681B68DB6803F04D
:101BE0000403042B1BD17B681B686FF004021A618D
:101BF0007B6802221A777B681B689B6903F4407339
:101C0000002B03D0786800F0C4F805E0786800F095
:101C1000B6F8786800F0C7F87B6800221A777B680E
:101C20001B681B6903F00803082B22D17B681B6823
:101C3000DB6803F00803082B1BD17B681B686FF07F
:101C400008021A617B6804221A777B681B68DB69CB
:101C500003F00303002B03D0786800F09AF805E046
:101C6000786800F08CF8786800F09DF87B680022B6
:101C70001A777B681B681B6903F01003102B22D1B5
:101C80007B681B68DB6803F01003102B1BD17B689B
:101C90001B686FF010021A617B6808221A777B6854
:101CA0001B68DB6903F44073002B03D0786800F0F5
:101CB00070F805E0786800F062F8786800F073F872
:101CC0007B6800221A777B681B681B6903F001039D
:101CD000012B0ED17B681B68DB6803F00103012B2D
:101CE00007D17B681B686FF001021A617868FEF704
:101CF00065FD7B681B681B6903F08003802B0ED198
:101D00007B681B68DB6803F08003802B07D17B684E
:101D10001B686FF080021A61786800F07FF97B68B9
:101D20001B681B6903F04003402B0ED17B681B68C6
:101D3000DB6803F04003402B07D17B681B686FF022
:101D400040021A61786800F038F87B681B681B69EC
:101D500003F02003202B0ED17B681B68DB6803F0A7
:101D60002003202B07D17B681B686FF020021A61CB
:101D7000786800F049F900BF0837BD4680BD80B4DF
:101D800083B000AF786000BF0C37BD465DF8047BC0
:101D9000704780B483B000AF786000BF0C37BD4699
:101DA0005DF8047B704780B483B000AF786000BFFB
:101DB0000C37BD465DF8047B704780B483B000AF3C
:101DC000786000BF0C37BD465DF8047B70470000AB
:101DD00080B485B000AF786039607B681B68FB60B9
:101DE0007B68404A934213D07B68B3F1804F0FD099
:101DF0007B683D4A93420BD07B683C4A934207D0B4
:101E00007B683B4A934203D07B683A4A934208D1AD
:101E1000FB6823F07003FB603B685B68FA68134360
:101E2000FB607B682F4A93422BD07B68B3F1804FD5
:101E300027D07B682C4A934223D07B682B4A93425D
:101E40001FD07B682A4A93421BD07B68294A934261
:101E500017D07B68284A934213D07B68274A934265
:101E60000FD07B68264A93420BD07B68254A934269
:101E700007D07B68244A934203D07B68234A93426D
:101E800008D1FB6823F44073FB603B68DB68FA68A9
:101E90001343FB60FB6823F080023B685B691343DC
:101EA000FB607B68FA681A603B689A687B68DA6254
:101EB0003B681A687B689A627B680A4A934203D03F
:101EC0007B680C4A934203D13B681A697B681A63AA
:101ED0007B6801225A6100BF1437BD465DF8047B60
:101EE000704700BF000001400004004000080040AF
:101EF000000C00400004014000400140004401404B
:101F00000048014000180040001C00400020004034
:101F100080B485B000AF786039607B6893F83C305E
:101F2000012B01D102235AE07B68012283F83C2077
:101F30007B68022283F83D207B681B685B68FB603E
:101F40007B681B689B68BB60FB6823F07003FB60C9
:101F50003B681B68FA681343FB607B681B68FA6880
:101F60005A607B681B68214A934222D07B681B68B9
:101F7000B3F1804F1DD07B681B681D4A934218D077
:101F80007B681B681B4A934213D07B681B681A4A04
:101F900093420ED07B681B68184A934209D07B6835
:101FA0001B68174A934204D07B681B68154A93420A
:101FB0000CD1BB6823F08003BB603B685B68BA68E8
:101FC0001343BB607B681B68BA689A607B68012218
:101FD00083F83D207B68002283F83C2000231846CC
:101FE0001437BD465DF8047B704700BF0000014018
:101FF0000004004000080040000C004000040140C4
:10200000004001400018004080B483B000AF786009
:1020100000BF0C37BD465DF8047B704780B483B0C9
:1020200000AF786000BF0C37BD465DF8047B704799
:1020300080B582B000AF78607B68002B01D10123AE
:102040003FE07B6893F83930DBB2002B06D17B6828
:10205000002283F838207868FEF764FC7B6824222D
:1020600083F839207B681B68DA687B681B6822F478
:102070000052DA60786800F0ADFA7B681B681A6974
:102080007B681B6822F490421A617B681B685A695E
:102090007B681B6822F02A025A617B681B68DA6839
:1020A0007B681B6842F40052DA607B680022DA63C6
:1020B0007B68202283F839207B68202283F83A202D
:1020C000002318460837BD4680BD80B485B000AFF8
:1020D000F860B9601346FB80FB6893F83930DBB2D7
:1020E000202B30D1BB68002B02D0FB88002B01D104
:1020F000012329E0FB6893F83830012B01D102233A
:1021000022E0FB68012283F83820FB68BA681A6273
:10211000FB68FA889A84FB68FA88DA84FB680022F4
:10212000DA63FB68212283F83920FB68002283F8F8
:102130003820FB681B68DA68FB681B6842F0800285
:10214000DA60002300E0022318461437BD465DF82C
:10215000047B704780B588B000AF78607B681B68EF
:102160001B68FB617B681B68DB68BB617B681B6865
:102170005B697B6100233B610023FB60FB6903F02B
:102180000F033B613B69002B0DD1FB6903F020037A
:10219000002B08D0BB6903F02003002B03D0786824
:1021A00000F096F9D0E03B69002B00F0B0807B692D
:1021B00003F00103002B05D1BB6903F49073002BDE
:1021C00000F0A580FB6903F00103002B0AD0BB6976
:1021D00003F48073002B05D07B68DB6B43F00102B6
:1021E0007B68DA63FB6903F00403002B0AD07B6988
:1021F00003F00103002B05D07B68DB6B43F0020288
:102200007B68DA63FB6903F00203002B0AD07B6969
:1022100003F00103002B05D07B68DB6B43F0040265
:102220007B68DA63FB6903F00803002B0FD0BB69FE
:1022300003F02003002B04D17B6903F00103002B82
:1022400005D07B68DB6B43F008027B68DA637B6850
:10225000DB6B002B77D0FB6903F02003002B07D04A
:10226000BB6903F02003002B02D0786800F030F93E
:102270007B681B685B6903F04003402B0CBF0123A4
:102280000023DBB2FB607B68DB6B03F00803002BF1
:1022900002D1FB68002B31D0786800F079F87B68B8
:1022A0001B685B6903F04003402B23D17B681B68EC
:1022B0005A697B681B6822F040025A617B685B6B3D
:1022C000002B13D07B685B6B214A1A657B685B6BC4
:1022D0001846FEF7B4FD0346002B16D07B685B6BF7
:1022E0001B6D7A68526B104698470EE0786800F0D4
:1022F00045F80AE0786800F041F806E0786800F0F8
:102300003DF87B680022DA631DE000BF1BE0FB693B
:1023100003F08003002B08D0BB6903F08003002B7F
:1023200003D0786800F066F80EE0FB6903F0400324
:10233000002B09D0BB6903F04003002B04D0786860
:1023400000F0AEF800E000BF2037BD4680BD00BF02
:10235000CD23000880B483B000AF786000BF0C3795
:10236000BD465DF8047B704780B483B000AF7860F1
:1023700000BF0C37BD465DF8047B704780B483B066
:1023800000AF786000BF0C37BD465DF8047B704736
:1023900080B483B000AF78607B681B68DA687B68C4
:1023A0001B6822F49072DA607B681B685A697B684C
:1023B0001B6822F001025A617B68202283F83A20D0
:1023C00000BF0C37BD465DF8047B704780B584B014
:1023D00000AF78607B689B6BFB60FB680022DA854E
:1023E000FB680022DA84F868FFF7C8FF00BF1037E7
:1023F000BD4680BD80B485B000AF78607B6893F83F
:102400003930DBB2212B44D17B689B68B3F5805F08
:102410001AD17B681B6AFB60FB681B881A467B68C5
:102420001B68C2F308025A607B681B69002B05D148
:102430007B681B6A9A1C7B681A620EE07B681B6AC9
:102440005A1C7B681A6208E07B681B6A591C7A6810
:1024500011621A787B681B685A607B68DB8C9BB2C0
:10246000013B9BB27A681946D184002B0FD17B685F
:102470001B68DA687B681B6822F08002DA607B6880
:102480001B68DA687B681B6842F04002DA60002350
:1024900000E0022318461437BD465DF8047B704700
:1024A00080B582B000AF78607B681B68DA687B68B3
:1024B0001B6822F04002DA607B68202283F8392012
:1024C0007868FFF747FF002318460837BD4680BDF0
:1024D00080B584B000AF78607B6893F83A30DBB2A7
:1024E000222B71D17B689B68B3F5805F23D17B6819
:1024F0009B6AFB607B681B69002B0ED17B681B68A5
:102500005B689BB2C3F308039AB2FB681A807B68CE
:102510009B6A9A1C7B689A6229E07B681B685B68EF
:102520009BB2DBB29AB2FB681A807B689B6A5A1C2A
:102530007B689A621BE07B681B69002B0AD17B6871
:102540001B6858687B689B6A591C7A689162C2B2A2
:102550001A700CE07B681B685B68DAB27B689B6A68
:10256000581C7968886202F07F02D2B21A707B68C8
:10257000DB8D9BB2013B9BB27A681946D185002B5B
:1025800020D17B681B68DA687B681B6822F0200218
:10259000DA607B681B68DA687B681B6822F48072EB
:1025A000DA607B681B685A697B681B6822F001024D
:1025B0005A617B68202283F83A207868FFF7D4FEBE
:1025C000002302E0002300E0022318461037BD4636
:1025D00080BD00002DE9B04FADF5027D00AFC7F81A
:1025E000FC01D7F8FC311B681B6923F44050D7F875
:1025F000FC31D968D7F8FC311A6840EA010313614D
:10260000D7F8FC319A68D7F8FC311B691A43D7F820
:10261000FC315B691A43D7F8FC31DB691343C7F817
:102620000432D7F8FC311B68DB6823F4164121F033
:102630000C01D7F8FC311A68D7F804320B43D36089
:10264000D7F8FC311B685B6923F44070D7F8FC3184
:102650009969D7F8FC311A6840EA01035361D7F849
:10266000FC31DB69B3F5004F40F04A82D7F8FC310A
:102670001A68964B9A4206D0D7F8FC311A68944BE8
:102680009A4240F02981FFF733FAC7F80002D7F8E1
:1026900000320022C7F8F031C7F8F421D7E97C45B1
:1026A00022462B469118C7F8D0105B41C7F8D430AA
:1026B000D7E9342321465118C7F8C81029464B41A1
:1026C000C7F8CC304FF000024FF00003D7E9328951
:1026D0004946CB00414643EA51734146CA00104681
:1026E0001946034622469B18C7F8E8312B460A468E
:1026F00042EB0303C7F8EC31D7F8FC315B680022EA
:10270000C7F8E031C7F8E421D7E978120B46DB18A7
:10271000C7F8C030134642EB0303C7F8C430D7E90B
:102720003023D7E97A01FDF7B3FD02460B46694B2A
:10273000A3FB02235B091C01D7F800320022C7F873
:10274000D831C7F8DC21D7E9768942464B46911843
:10275000C7F8B8105B41C7F8BC30D7E92E23414613
:102760005118C7F8B01049464B41C7F8B4304FF084
:1027700000024FF00003D7E92CAB5946CB0051467D
:1027800043EA51735146CA00104619460346424671
:102790009B18C7F8D0314B460A4642EB0303C7F8F3
:1027A000D431D7F8FC315B680022C7F8C831C7F8CC
:1027B000CC21D7E972120B46DB18C7F8A8301346B4
:1027C00042EB0303C7F8AC30D7E92A23D7E97401F9
:1027D000FDF75EFD02460B4611463E4BA3FB01236F
:1027E0005B09642202FB03F3CB1ADB0003F1320224
:1027F000384BA3FB02235B095B0003F4F8731C4412
:10280000D7F800320022C7F8C031C7F8C421D7E991
:10281000708942464B469118C7F8A0105B41C7F833
:10282000A430D7E9282341465118C7F898104946E3
:102830004B41C7F89C304FF000024FF00003D7E93E
:1028400026AB5946CB00514643EA51735146CA0064
:1028500010461946034642469B18C7F8B8314B4606
:102860000A4642EB0303C7F8BC31D7F8FC315B687A
:102870000022C7F8B031C7F8B421D7E96C120B4673
:10288000DB18C7F89030134642EB0303C7F89430C7
:10289000D7E92423D7E96E01FDF7FAFC02460B467F
:1028A0000C4BA3FB02135B09642101FB03F3D31A56
:1028B000DB003233074AA2FB03235B0903F0070264
:1028C000D7F8FC311B6822449A6049E300100140AC
:1028D000001401401F85EB51FFF7F6F8C7F800021E
:1028E000D7F800320022C7F8A831C7F8AC21D7E9E1
:1028F0006A4522462B469118C7F888105B41C7F8F5
:102900008C30D7E92223214612EB010A294643EBFA
:10291000010B4FF000024FF000034FEACB0343EAF4
:102920005A734FEACA0292469B4623461AEB0303A8
:10293000C7F8A0312B464BEB0303C7F8A431D7F8F7
:10294000FC315B680022C7F89831C7F89C21D7E9B1
:1029500066120B46DB18C7F88030134642EB0303C0
:10296000C7F88430D7E92023D7E96801FDF790FC48
:1029700002460B46614BA3FB02235B091C01D7F8FF
:1029800000320022C7F89031C7F89421D7E9648952
:1029900042464B469118B9675B41FB67D7E91E2356
:1029A00041465118396749464B417B674FF0000259
:1029B0004FF00003D7E91CAB5946CB00514643EA20
:1029C00051735146CA0010461946034642469B18A9
:1029D000C7F888314B460A4642EB0303C7F88C31EF
:1029E000D7F8FC315B680022C7F88031C7F8842132
:1029F000D7E960120B46DB18BB66134642EB0303B4
:102A0000FB66D7E91A23D7E96201FDF741FC0246CC
:102A10000B461146394BA3FB01235B09642202FBE1
:102A200003F3CB1ADB0003F13202344BA3FB022386
:102A30005B095B0003F4F8731C44D7F800320022F2
:102A4000C7F87831C7F87C21D7E95E8942464B4602
:102A5000911839665B417B66D7E9182341465118C6
:102A6000B96549464B41FB654FF000024FF000034A
:102A7000D7E916AB5946CB00514643EA517351464C
:102A8000CA0010461946034642469B18C7F87031E3
:102A90004B460A4642EB0303C7F87431D7F8FC31C2
:102AA0005B680022C7F86831C7F86C21D7E95A1271
:102AB0000B46DB183B65134642EB03037B65D7E906
:102AC0001423D7E95C01FDF7E3FB02460B460B4BF1
:102AD000A3FB02135B09642101FB03F3D31ADB00A0
:102AE0003233064AA2FB03235B0903F00702D7F83F
:102AF000FC311B6822449A6032E200BF1F85EB5113
:102B0000D7F8FC311A688D4B9A4206D0D7F8FC31C1
:102B10001A688B4B9A4240F01781FEF7E9FFC7F81D
:102B20000002D7F800320022C7F86031C7F86421EC
:102B3000D7E9584522462B469118B9645B41FB649E
:102B4000D7E91223214612EB0108294643EB01097C
:102B50004FF000024FF000034FEAC90343EA5873F5
:102B60004FEAC80290469946234618EB0303C7F87C
:102B700058312B4649EB0303C7F85C31D7F8FC31D9
:102B80005B680022C7F85031C7F854214FF00002AB
:102B90004FF00003D7E9544529468B00214643EA0C
:102BA000917321468A00D7E95601FDF771FB024671
:102BB0000B46644BA3FB02235B091C01D7F80032D0
:102BC0000022C7F84831C7F84C21D7E9528942465C
:102BD0004B46911839645B417B64D7E91023414629
:102BE0005118B96349464B41FB634FF000024FF067
:102BF0000003D7E90EAB5946CB00514643EA517367
:102C00005146CA0010461946034642469B18C7F86B
:102C100040314B460A4642EB0303C7F84431D7F82C
:102C2000FC315B680022C7F83831C7F83C214FF00F
:102C300000024FF00003D7E94E8949468B00414618
:102C400043EA917341468A00D7E95001FDF720FB22
:102C500002460B463B4BA3FB02135B09642101FBBD
:102C600003F3D31A1B013233364AA2FB03235B0959
:102C700003F0F0031C44D7F800320022C7F83031CB
:102C8000C7F83421D7E94C8942464B46911839633D
:102C90005B417B63D7E90C2341465118B962494631
:102CA0004B41FB624FF000024FF00003D7E90AAB43
:102CB0005946CB00514643EA51735146CA0010466B
:102CC0001946034642469B18C7F828314B460A4628
:102CD00042EB0303C7F82C31D7F8FC315B680022C4
:102CE000C7F82031C7F824214FF000024FF000034D
:102CF000D7E9488949468B00414643EA91734146EA
:102D00008A00D7E94A01FDF7C3FA02460B460D4B8C
:102D1000A3FB02135B09642101FB03F3D31A1B011C
:102D20003233084AA2FB03235B0903F00F02D7F8F2
:102D3000FC311B6822449A6012E100BF0010014080
:102D4000001401401F85EB51FEF7BEFEC7F80002DC
:102D5000D7F800320022C7F81831C7F81C21D7E98C
:102D6000468942464B46911839625B417B62D7E9FE
:102D7000082341465418494643EB01054FF0000231
:102D80004FF00003EB0043EA5473E20014461D4683
:102D90004346E318C7F810314B4645EB0303C7F829
:102DA0001431D7F8FC315B680022C7F80831C7F846
:102DB0000C214FF000024FF00003D7E942452946AD
:102DC0008B00214643EA917321468A00D7E94401EA
:102DD000FDF75EFA02460B46644BA3FB02235B0938
:102DE0001C01D7F800320022C7F80031C7F80421CF
:102DF000D7E9408942464B469118B9615B41FB6176
:102E0000D7E9062341465118396149464B417B6158
:102E10004FF000024FF00003D7E904AB5946CB0056
:102E2000514643EA51735146CA00104619460346BB
:102E300042469B18C7F8F8304B460A4642EB03035C
:102E4000C7F8FC30D7F8FC315B680022C7F8F030D7
:102E5000C7F8F4204FF000024FF00003D7E93C8997
:102E600049468B00414643EA917341468A00D7E9BF
:102E70003E01FDF70DFA02460B463C4BA3FB021345
:102E80005B09642101FB03F3D31A1B013233374A78
:102E9000A2FB03235B0903F0F0031C44D7F80032C4
:102EA0000022C7F8E830C7F8EC20D7E93A89424653
:102EB0004B469118B9605B41FB60D7E9022341465C
:102EC0005118396049464B417B604FF000024FF08A
:102ED0000003D7E900AB5946CB00514643EA517392
:102EE0005146CA0010461946034642469B18C7F889
:102EF000E0304B460A4642EB0303C7F8E430D7F80C
:102F0000FC315B680022C7F8D830C7F8DC204FF0EE
:102F100000024FF00003D7E9368949468B0041464D
:102F200043EA917341468A00D7E93801FDF7B0F9C9
:102F300002460B460D4BA3FB02135B09642101FB08
:102F400003F3D31A1B013233084AA2FB03235B09A4
:102F500003F00F02D7F8FC311B6822449A60FFE7A8
:102F600000BF07F50277BD46BDE8B08F1F85EB5166
:102F7000014B1868704700BF0C00002070B50D4D64
:102F80000D4C641BA4100026A64209D10B4D0C4C1D
:102F900000F08EFC641BA4100026A64205D170BD73
:102FA00055F8043B98470136EEE755F8043B98473F
:102FB0000136F2E72C6109082C6109082C61090827
:102FC0003061090802440346934200D1704703F878
:102FD000011BF9E70EB400B59CB01DAB0290069042
:102FE0006FF00041094807910491094953F8042BF7
:102FF00005910068019302A900F068F8029B002285
:103000001A701CB05DF804EB03B070470C00002090
:103010000802FFFF2DE9F0478E689E4282460C466B
:1030200090461F4638D88A8912F4906F32D02568AE
:103030000969A5EB0109656905EB450505EBD57542
:1030400001334B446D109D4238BF1D46530531D5A9
:10305000294600F063FB064650B90C23CAF800303D
:10306000A38943F04003A3814FF0FF30BDE8F08710
:1030700021694A4600F0BEFAA38923F4906343F025
:103080008003A381266165614E44A5EB0905266096
:10309000A5603E46BE4200D93E46206832464146C3
:1030A00000F0B6FAA3689B1BA36023683344236037
:1030B0000020DBE72A4600F0A5FB06460028E1D108
:1030C0002169504600F0BEFAC7E700002DE9F04F35
:1030D00098468B891B069DB007460D4614460ED5B3
:1030E0000B6963B9402100F019FB2860286120B901
:1030F0000C233B604FF0FF30D1E040236B61002395
:10310000099320238DF82930CDF80C803023DFF887
:10311000A8818DF82A304FF0010923469A4613F80A
:10312000012B0AB1252AF9D1BAEB040B0BD05B466F
:10313000224629463846FFF76DFF013000F0AA808D
:10314000099A5A4409929AF80030002B00F0A280A4
:1031500000234FF0FF32CDE905230AF1010A049361
:1031600007938DF853301A935446052214F8011B27
:103170005148FDF73DF8049AD8B9D00644BF202342
:103180008DF85330110744BF2B238DF853309AF834
:1031900000302A2B15D0079A544600204FF00A0C15
:1031A000214611F8013B303B092B4ED9B0B10792B3
:1031B00014E0A0EB080309FA03F313430493A246B7
:1031C000D2E7039B191D1B680391002BBBBF5B4219
:1031D00042F0020207930793B8BF049223782E2B84
:1031E0000CD163782A2B35D1039B1A1D1B680392DF
:1031F000002BB8BF4FF0FF3302340593DFF8C8A0AF
:10320000217803225046FCF7F3FF40B14023A0EBA6
:103210000A0003FA00F0049B03430134049314F8FA
:10322000011B26488DF828100622FCF7E1FF002834
:1032300038D0234B1BBB039B073323F00703083312
:103240000393099B3344099367E70CFB02320C4656
:103250000120A5E700230134059319464FF00A0C1D
:10326000204610F8012B303A092A03D9002BC5D08B
:103270000591C3E70CFB012104460123F0E703ABF2
:1032800000932A460F4B04A93846AFF30080421C36
:103290000646D6D1AB895B063FF52CAF09981DB029
:1032A000BDE8F08F03AB00932A46064B04A93846CD
:1032B00000F07AF8EBE700BFF0600908FA6009084F
:1032C0000000000015300008F66009082DE9F047FD
:1032D000164699468A680B69DDF820809342B8BF8C
:1032E0001346336091F8432007460C460AB1013378
:1032F00033602368990642BF336802333360256820
:1033000015F0060506D104F1190AE36832689B1A24
:10331000AB4226DC94F84320131E226818BF012319
:1033200092062BD404F1430249463846C047013087
:103330001ED02368E568326803F00603042B08BF3B
:10334000AD1AA36822690CBF25EAE57500259342F2
:10335000C4BF9B1AED1800261A34B5421AD10020BA
:1033600008E00123524649463846C047013003D1A0
:103370004FF0FF30BDE8F0870135C6E7E1185A1C71
:10338000302081F84300224494F8451082F843101D
:103390000233C7E70123224649463846C047013079
:1033A000E6D00136D9E700002DE9FF470F7E0C9DDE
:1033B000782F914680460C469A4601F1430207D881
:1033C000622F0AD8002F00F0D880582F00F0A38079
:1033D00004F1420584F842703AE0A7F16303152B2B
:1033E000F6D801A151F823F0413400085534000803
:1033F000D1330008D1330008D1330008D13300089D
:1034000055340008D1330008D1330008D133000807
:10341000D1330008613500088534000843350008C1
:10342000D1330008D133000883350008D1330008B8
:1034300085340008D1330008D13300084B3500082B
:103440002B681A1D1B682A6004F1420584F842307B
:103450000123A3E020682968060601F104030AD5C8
:103460000E682B60002E03DA2D23764284F8433059
:103470005E480A2319E00E682B6010F0400F18BF59
:1034800036B2EFE72B682068191D2960010601D5C7
:103490001E6802E04606FBD51E8854486F2F0CBFFD
:1034A00008230A23002184F843106568A560002DD5
:1034B000A2BF216821F0040121600EB9002D4DD07A
:1034C0001546B6FBF3F103FB1167C75D05F8017DF7
:1034D0003746BB420E46F4D9082B0BD12368DE07D2
:1034E00008D5236961689942DEBF302305F8013CA5
:1034F00005F1FF35521B2261CDF800A04B4603AA0F
:1035000021464046FFF7E2FE01304CD14FF0FF303C
:1035100004B0BDE8F087354881F845702968236814
:1035200051F8046B29601D0614D5DF0744BF43F032
:10353000200323601EB9236823F020032360102397
:10354000B0E7236843F0200323607823284884F8F9
:103550004530E3E7590648BFB6B2E6E71546BBE794
:103560002B6826686169181D286035061B6801D51F
:10357000196002E07006FBD519800023236115460F
:10358000BAE72B681A1D2A601D6862680021284668
:10359000FCF72EFE08B1401B6060636823610023C6
:1035A00084F84330A8E723692A4649464046D04775
:1035B0000130ABD023689B0713D4E068039B98428B
:1035C000B8BF1846A4E70123324649464046D047D3
:1035D00001309BD00135E36803995B1AAB42F2DC02
:1035E000EBE7002504F11906F5E700BF01610908C2
:1035F000126109080A44914200F1FF3300D170477B
:1036000010B511F8014B03F8014F9142F9D110BDEB
:10361000884210B501EB020402D98442234607D840
:10362000431EA14208D011F8012B03F8012FF8E73F
:10363000024401468A4200D110BD13F8014D02F840
:10364000014DF7E737B5002944D051F8043C01900B
:10365000002BA1F10404B8BFE41800F013F91E4ACE
:103660000198136833B96360146003B0BDE830405B
:1036700000F00EB9A34208D9256861198B4201BF39
:1036800019685B6849192160EDE71A465B680BB160
:10369000A342FAD911685518A5420BD124682144D8
:1036A0005418A3421160E0D11C685B685360214448
:1036B0001160DAE702D90C230360D6E725686119A7
:1036C0008B4204BF19685B68636004BF49192160BD
:1036D0005460CAE703B030BD1C01002070B50E4E27
:1036E0000C463168054611B900F0BCF8306021463F
:1036F000284600F0B7F8431C0AD0C41C24F0030489
:10370000A04207D0211A284600F0ACF8013001D1C0
:103710004FF0FF34204670BD200100202DE9F0411C
:10372000CD1C25F0030508350C2D38BF0C25002DC8
:10373000074601DBA94205D90C233B600026304631
:10374000BDE8F0812E4E00F09DF833681C4634BB76
:1037500029463846FFF7C2FF431C04464DD1346862
:103760002646002E40D123683146384604EB030834
:1037700000F078F880453AD1216803356D1A25F0BC
:10378000030508350C2D38BF0C2529463846FFF7B0
:10379000A5FF01302BD023682B4423600EE0226864
:1037A000521B1ED40B2A16D96119A342256018BFDB
:1037B0005960636808BF316062514B60384604F15C
:1037C0000B0600F065F826F00706231DF21AB6D0A6
:1037D0009B1BA350B3E76268A3420CBF32605A60E0
:1037E000ECE723466468B2E734467668B9E70C2311
:1037F0003B60384600F04CF8A1E72560DEE700BFEB
:103800001C0100202DE9F041804614460E4621B9E6
:10381000BDE8F0411146FFF781BF2AB9FFF712FF5B
:1038200025462846BDE8F08100F038F88442074676
:1038300002D8B4EB500F12D821464046FFF76EFF76
:1038400005460028EDD0BC422246314628BF3A4604
:10385000FFF7D0FE31464046FFF7F4FEE1E735467C
:10386000DFE7000038B5064D0023044608462B600C
:10387000FDF7F6F8431C02D12B6803B1236038BD75
:1038800024010020014800F011B800BF28010020E9
:10389000014800F00CB800BF2801002051F8043C9A
:1038A000181F002BBCBF0B58C018704770477047DB
:1038B000F8B500BFF8BC08BC9E467047F8B500BF1D
:0838C000F8BC08BC9E467047ED
:1038C8002025303475202530347520253034750D89
:1038D80000000000203030313020303032302030CD
:1038E8003033300D00000000000000000000000030
:1038F80000000000000000000000000000000000C0
:103908000000000000000000E80364006400E80311
:1039180064006400E80364006400E8036400640071
:10392800E80364006400E80364006400E8036400DA
:103938006400E80364006400E80364006400E803CA
:1039480064006400E80364006400E8036400640041
:10395800E80364006400E80364006400E8036400AA
:103968006400E80364006400E80364006400E8039A
:1039780064006400E80364006400E8036400640011
:10398800E80364006400E80364006400E80364007A
:103998006400E80364006400E80364006400E8036A
:1039A80064006400E80364006400E80364006400E1
:1039B800E80364006400E80364006400E80364004A
:1039C8006400E80364006400E80364006400E8033A
:1039D80064006400E80364006400E80364006400B1
:1039E800E80364006400E80364006400E80364001A
:1039F8006400E80364006400E80364006400E8030A
:103A080064006400E80364006400E8036400640080
:103A1800E80364006400E80364006400E8036400E9
:103A28006400E80364006400E80364006400E803D9
:103A380064006400E80364006400E8036400640050
:103A4800E80364006400E80364006400E8036400B9
:103A58006400E80364006400E80364006400E803A9
:103A680064006400E80364006400E8036400640020
:103A7800E80364006400E80364006400E803640089
:103A88006400E80364006400E80364006400E80379
:103A980064006400E80364006400E80364006400F0
:103AA800E80364006400E80364006400E803640059
:103AB8006400E80364006400E80364006400E80349
:103AC80064006400E80364006400E80364006400C0
:103AD800E80364006400E80364006400E803640029
:103AE8006400E80364006400E80364006400E80319
:103AF80064006400E80364006400E8036400640090
:103B0800E80364006400E80364006400E8036400F8
:103B18006400E80364006400E80364006400E803E8
:103B280064006400E80364006400E803640064005F
:103B3800E80364006400E80364006400E8036400C8
:103B48006400E80364006400E80364006400E803B8
:103B580064006400E80364006400E803C800C80067
:103B6800E803C800C800E803C800C800E803C800A4
:103B7800C800E803C800C800E803C800C800E80394
:103B8800C800C800E803C800C800E803C800C800A7
:103B9800E803C800C800E803C800C800E803C80074
:103BA800C800E803C800C800E803C800C800E80364
:103BB800C800C800E803C800C800E803C800C80077
:103BC800E803C800C800E803C800C800E803C80044
:103BD800C800E803C800C800E803C800C800E80334
:103BE800C800C800E803C800C800E803C800C80047
:103BF800E803C800C800E803C800C800E803C80014
:103C0800C800E803C800C800E803C800C800E80303
:103C1800C800C800E803C800C800E803C800C80016
:103C2800E803C800C800E803C800C800E803C800E3
:103C3800C800E803C800C800E803C800C800E803D3
:103C4800C800C800E803C800C800E803C800C800E6
:103C5800E803C800C800E803C800C800E803C800B3
:103C6800C800E803C800C800E803C800C800E803A3
:103C7800C800C800E803C800C800E803C800C800B6
:103C8800E803C800C800E803C800C800E803C80083
:103C9800C800E803C800C800E803C800C800E80373
:103CA800C800C800E803C800C800E803C800C80086
:103CB800E803C800C800E803C800C800E803C80053
:103CC800C800E803C800C800E803C800C800E80343
:103CD800C800C800E803C800C800E803C800C80056
:103CE800E803C800C800E803C800C800E803C80023
:103CF800C800E803C800C800E803C800C800E80313
:103D0800C800C800E803C800C800E803C800C80025
:103D1800E803C800C800E803C800C800E803C800F2
:103D2800C800E803C800C800E803C800C800E803E2
:103D3800C800C800E803C800C800E803C800C800F5
:103D4800E803C800C800E803C800C800E803C800C2
:103D5800C800E803C800C800E803C800C800E803B2
:103D6800C800C800E803C800C800E803C800C800C5
:103D7800E803C800C800E803C800C800E803C80092
:103D8800C800E803C800C800E803C800C800E80382
:103D9800C800C800E803C800C800E803C800C80095
:103DA800E803C800C800E803C800C800E803C80062
:103DB800C800E8032C012C01E8032C012C01E803BE
:103DC8002C012C01E8032C012C01E8032C012C0107
:103DD800E8032C012C01E8032C012C01E8032C0139
:103DE8002C01E8032C012C01E8032C012C01E80329
:103DF8002C012C01E8032C012C01E8032C012C01D7
:103E0800E8032C012C01E8032C012C01E8032C0108
:103E18002C01E8032C012C01E8032C012C01E803F8
:103E28002C012C01E8032C012C01E8032C012C01A6
:103E3800E8032C012C01E8032C012C01E8032C01D8
:103E48002C01E8032C012C01E8032C012C01E803C8
:103E58002C012C01E8032C012C01E8032C012C0176
:103E6800E8032C012C01E8032C012C01E8032C01A8
:103E78002C01E8032C012C01E8032C012C01E80398
:103E88002C012C01E8032C012C01E8032C012C0146
:103E9800E8032C012C01E8032C012C01E8032C0178
:103EA8002C01E8032C012C01E8032C012C01E80368
:103EB8002C012C01E8032C012C01E8032C012C0116
:103EC800E8032C012C01E8032C012C01E8032C0148
:103ED8002C01E8032C012C01E8032C012C01E80338
:103EE8002C012C01E8032C012C01E8032C012C01E6
:103EF800E8032C012C01E8032C012C01E8032C0118
:103F08002C01E8032C012C01E8032C012C01E80307
:103F18002C012C01E8032C012C01E8032C012C01B5
:103F2800E8032C012C01E8032C012C01E8032C01E7
:103F38002C01E8032C012C01E8032C012C01E803D7
:103F48002C012C01E8032C012C01E8032C012C0185
:103F5800E8032C012C01E8032C012C01E8032C01B7
:103F68002C01E8032C012C01E8032C012C01E803A7
:103F78002C012C01E8032C012C01E8032C012C0155
:103F8800E8032C012C01E8032C012C01E8032C0187
:103F98002C01E8032C012C01E8032C012C01E80377
:103FA8002C012C01E8032C012C01E8032C012C0125
:103FB800E8032C012C01E8032C012C01E8032C0157
:103FC8002C01E8032C012C01E8032C012C01E80347
:103FD8002C012C01E8032C012C01E8032C012C01F5
:103FE800E8032C012C01E8032C012C01E8032C0127
:103FF8002C01E8032C012C01E8032C012C01E80317
:104008002C012C01E8032C012C01E80390019001FC
:10401800E80390019001E80390019001E803900102
:104028009001E80390019001E80390019001E803F2
:1040380090019001E80390019001E803900190013C
:10404800E80390019001E80390019001E8039001D2
:104058009001E80390019001E80390019001E803C2
:1040680090019001E80390019001E803900190010C
:10407800E80390019001E80390019001E8039001A2
:104088009001E80390019001E80390019001E80392
:1040980090019001E80390019001E80390019001DC
:1040A800E80390019001E80390019001E803900172
:1040B8009001E80390019001E80390019001E80362
:1040C80090019001E80390019001E80390019001AC
:1040D800E80390019001E80390019001E803900142
:1040E8009001E80390019001E80390019001E80332
:1040F80090019001E80390019001E803900190017C
:10410800E80390019001E80390019001E803900111
:104118009001E80390019001E80390019001E80301
:1041280090019001E80390019001E803900190014B
:10413800E80390019001E80390019001E8039001E1
:104148009001E80390019001E80390019001E803D1
:1041580090019001E80390019001E803900190011B
:10416800E80390019001E80390019001E8039001B1
:104178009001E80390019001E80390019001E803A1
:1041880090019001E80390019001E80390019001EB
:10419800E80390019001E80390019001E803900181
:1041A8009001E80390019001E80390019001E80371
:1041B80090019001E80390019001E80390019001BB
:1041C800E80390019001E80390019001E803900151
:1041D8009001E80390019001E80390019001E80341
:1041E80090019001E80390019001E803900190018B
:1041F800E80390019001E80390019001E803900121
:104208009001E80390019001E80390019001E80310
:1042180090019001E80390019001E803900190015A
:10422800E80390019001E80390019001E8039001F0
:104238009001E80390019001E80390019001E803E0
:1042480090019001E80390019001E803900190012A
:10425800E80390019001E80390019001E8039001C0
:104268009001E803F401F401E803F401F401E80320
:10427800F401F401E803F401F401E803F401F401A2
:10428800E803F401F401E803F401F401E803F4019C
:10429800F401E803F401F401E803F401F401E8038C
:1042A800F401F401E803F401F401E803F401F40172
:1042B800E803F401F401E803F401F401E803F4016C
:1042C800F401E803F401F401E803F401F401E8035C
:1042D800F401F401E803F401F401E803F401F40142
:1042E800E803F401F401E803F401F401E803F4013C
:1042F800F401E803F401F401E803F401F401E8032C
:10430800F401F401E803F401F401E803F401F40111
:10431800E803F401F401E803F401F401E803F4010B
:10432800F401E803F401F401E803F401F401E803FB
:10433800F401F401E803F401F401E803F401F401E1
:10434800E803F401F401E803F401F401E803F401DB
:10435800F401E803F401F401E803F401F401E803CB
:10436800F401F401E803F401F401E803F401F401B1
:10437800E803F401F401E803F401F401E803F401AB
:10438800F401E803F401F401E803F401F401E8039B
:10439800F401F401E803F401F401E803F401F40181
:1043A800E803F401F401E803F401F401E803F4017B
:1043B800F401E803F401F401E803F401F401E8036B
:1043C800F401F401E803F401F401E803F401F40151
:1043D800E803F401F401E803F401F401E803F4014B
:1043E800F401E803F401F401E803F401F401E8033B
:1043F800F401F401E803F401F401E803F401F40121
:10440800E803F401F401E803F401F401E803F4011A
:10441800F401E803F401F401E803F401F401E8030A
:10442800F401F401E803F401F401E803F401F401F0
:10443800E803F401F401E803F401F401E803F401EA
:10444800F401E803F401F401E803F401F401E803DA
:10445800F401F401E803F401F401E803F401F401C0
:10446800E803F401F401E803F401F401E803F401BA
:10447800F401E803F401F401E803F401F401E803AA
:10448800F401F401E803F401F401E803F401F40190
:10449800E803F401F401E803F401F401E803F4018A
:1044A800F401E803F401F401E803F401F401E8037A
:1044B800F401F401E803F401F401E8035802580296
:1044C800E80358025802E80358025802E803580261
:1044D8005802E80358025802E80358025802E80351
:1044E80058025802E80358025802E80358025802D2
:1044F800E80358025802E80358025802E803580231
:104508005802E80358025802E80358025802E80320
:1045180058025802E80358025802E80358025802A1
:10452800E80358025802E80358025802E803580200
:104538005802E80358025802E80358025802E803F0
:1045480058025802E80358025802E8035802580271
:10455800E80358025802E80358025802E8035802D0
:104568005802E80358025802E80358025802E803C0
:1045780058025802E80358025802E8035802580241
:10458800E80358025802E80358025802E8035802A0
:104598005802E80358025802E80358025802E80390
:1045A80058025802E80358025802E8035802580211
:1045B800E80358025802E80358025802E803580270
:1045C8005802E80358025802E80358025802E80360
:1045D80058025802E80358025802E80358025802E1
:1045E800E80358025802E80358025802E803580240
:1045F8005802E80358025802E80358025802E80330
:1046080058025802E80358025802E80358025802B0
:10461800E80358025802E80358025802E80358020F
:104628005802E80358025802E80358025802E803FF
:1046380058025802E80358025802E8035802580280
:10464800E80358025802E80358025802E8035802DF
:104658005802E80358025802E80358025802E803CF
:1046680058025802E80358025802E8035802580250
:10467800E80358025802E80358025802E8035802AF
:104688005802E80358025802E80358025802E8039F
:1046980058025802E80358025802E8035802580220
:1046A800E80358025802E80358025802E80358027F
:1046B8005802E80358025802E80358025802E8036F
:1046C80058025802E80358025802E80358025802F0
:1046D800E80358025802E80358025802E80358024F
:1046E8005802E80358025802E80358025802E8033F
:1046F80058025802E80358025802E80358025802C0
:10470800E80358025802E80358025802E80358021E
:104718005802E803BC02BC02E803BC02BC02E8037E
:10472800BC02BC02E803BC02BC02E803BC02BC0237
:10473800E803BC02BC02E803BC02BC02E803BC02FA
:10474800BC02E803BC02BC02E803BC02BC02E803EA
:10475800BC02BC02E803BC02BC02E803BC02BC0207
:10476800E803BC02BC02E803BC02BC02E803BC02CA
:10477800BC02E803BC02BC02E803BC02BC02E803BA
:10478800BC02BC02E803BC02BC02E803BC02BC02D7
:10479800E803BC02BC02E803BC02BC02E803BC029A
:1047A800BC02E803BC02BC02E803BC02BC02E8038A
:1047B800BC02BC02E803BC02BC02E803BC02BC02A7
:1047C800E803BC02BC02E803BC02BC02E803BC026A
:1047D800BC02E803BC02BC02E803BC02BC02E8035A
:1047E800BC02BC02E803BC02BC02E803BC02BC0277
:1047F800E803BC02BC02E803BC02BC02E803BC023A
:10480800BC02E803BC02BC02E803BC02BC02E80329
:10481800BC02BC02E803BC02BC02E803BC02BC0246
:10482800E803BC02BC02E803BC02BC02E803BC0209
:10483800BC02E803BC02BC02E803BC02BC02E803F9
:10484800BC02BC02E803BC02BC02E803BC02BC0216
:10485800E803BC02BC02E803BC02BC02E803BC02D9
:10486800BC02E803BC02BC02E803BC02BC02E803C9
:10487800BC02BC02E803BC02BC02E803BC02BC02E6
:10488800E803BC02BC02E803BC02BC02E803BC02A9
:10489800BC02E803BC02BC02E803BC02BC02E80399
:1048A800BC02BC02E803BC02BC02E803BC02BC02B6
:1048B800E803BC02BC02E803BC02BC02E803BC0279
:1048C800BC02E803BC02BC02E803BC02BC02E80369
:1048D800BC02BC02E803BC02BC02E803BC02BC0286
:1048E800E803BC02BC02E803BC02BC02E803BC0249
:1048F800BC02E803BC02BC02E803BC02BC02E80339
:10490800BC02BC02E803BC02BC02E803BC02BC0255
:10491800E803BC02BC02E803BC02BC02E803BC0218
:10492800BC02E803BC02BC02E803BC02BC02E80308
:10493800BC02BC02E803BC02BC02E803BC02BC0225
:10494800E803BC02BC02E803BC02BC02E803BC02E8
:10495800BC02E803BC02BC02E803BC02BC02E803D8
:10496800BC02BC02E803BC02BC02E803200320032B
:10497800E80320032003E80320032003E8032003BF
:104988002003E80320032003E80320032003E803AF
:1049980020032003E80320032003E8032003200367
:1049A800E80320032003E80320032003E80320038F
:1049B8002003E80320032003E80320032003E8037F
:1049C80020032003E80320032003E8032003200337
:1049D800E80320032003E80320032003E80320035F
:1049E8002003E80320032003E80320032003E8034F
:1049F80020032003E80320032003E8032003200307
:104A0800E80320032003E80320032003E80320032E
:104A18002003E80320032003E80320032003E8031E
:104A280020032003E80320032003E80320032003D6
:104A3800E80320032003E80320032003E8032003FE
:104A48002003E80320032003E80320032003E803EE
:104A580020032003E80320032003E80320032003A6
:104A6800E80320032003E80320032003E8032003CE
:104A78002003E80320032003E80320032003E803BE
:104A880020032003E80320032003E8032003200376
:104A9800E80320032003E80320032003E80320039E
:104AA8002003E80320032003E80320032003E8038E
:104AB80020032003E80320032003E8032003200346
:104AC800E80320032003E80320032003E80320036E
:104AD8002003E80320032003E80320032003E8035E
:104AE80020032003E80320032003E8032003200316
:104AF800E80320032003E80320032003E80320033E
:104B08002003E80320032003E80320032003E8032D
:104B180020032003E80320032003E80320032003E5
:104B2800E80320032003E80320032003E80320030D
:104B38002003E80320032003E80320032003E803FD
:104B480020032003E80320032003E80320032003B5
:104B5800E80320032003E80320032003E8032003DD
:104B68002003E80320032003E80320032003E803CD
:104B780020032003E80320032003E8032003200385
:104B8800E80320032003E80320032003E8032003AD
:104B98002003E80320032003E80320032003E8039D
:104BA80020032003E80320032003E8032003200355
:104BB800E80320032003E80320032003E80320037D
:104BC8002003E80384038403E80384038403E803DD
:104BD80084038403E80384038403E80384038403CD
:104BE800E80384038403E80384038403E803840359
:104BF8008403E80384038403E80384038403E80349
:104C080084038403E80384038403E803840384039C
:104C1800E80384038403E80384038403E803840328
:104C28008403E80384038403E80384038403E80318
:104C380084038403E80384038403E803840384036C
:104C4800E80384038403E80384038403E8038403F8
:104C58008403E80384038403E80384038403E803E8
:104C680084038403E80384038403E803840384033C
:104C7800E80384038403E80384038403E8038403C8
:104C88008403E80384038403E80384038403E803B8
:104C980084038403E80384038403E803840384030C
:104CA800E80384038403E80384038403E803840398
:104CB8008403E80384038403E80384038403E80388
:104CC80084038403E80384038403E80384038403DC
:104CD800E80384038403E80384038403E803840368
:104CE8008403E80384038403E80384038403E80358
:104CF80084038403E80384038403E80384038403AC
:104D0800E80384038403E80384038403E803840337
:104D18008403E80384038403E80384038403E80327
:104D280084038403E80384038403E803840384037B
:104D3800E80384038403E80384038403E803840307
:104D48008403E80384038403E80384038403E803F7
:104D580084038403E80384038403E803840384034B
:104D6800E80384038403E80384038403E8038403D7
:104D78008403E80384038403E80384038403E803C7
:104D880084038403E80384038403E803840384031B
:104D9800E80384038403E80384038403E8038403A7
:104DA8008403E80384038403E80384038403E80397
:104DB80084038403E80384038403E80384038403EB
:104DC800E80384038403E80384038403E803840377
:104DD8008403E80384038403E80384038403E80367
:104DE80084038403E80384038403E80384038403BB
:104DF800E80384038403E80384038403E803840347
:104E08008403E80384038403E80384038403E80336
:104E180084038403E80384038403E803E803E803C2
:104E2800E803E803E803E803E803E803E803E80322
:104E3800E803E803E803E803E803E803E803E80312
:104E4800E803E803E803E803E803E803E803E80302
:104E5800E803E803E803E803E803E803E803E803F2
:10507800E803E8034C044C04E8034C044C04E8033C
:105088004C044C04E8034C044C04E8034C044C0462
:10509800E8034C044C04E8034C044C04E8034C04B7
:1050A8004C04E8034C044C04E8034C044C04E803A7
:1050B8004C044C04E8034C044C04E8034C044C0432
:1050C800E8034C044C04E8034C044C04E8034C0487
:1050D8004C04E8034C044C04E8034C044C04E80377
:1050E8004C044C04E8034C044C04E8034C044C0402
:1050F800E8034C044C04E8034C044C04E8034C0457
:105108004C04E8034C044C04E8034C044C04E80346
:105118004C044C04E8034C044C04E8034C044C04D1
:10512800E8034C044C04E8034C044C04E8034C0426
:105138004C04E8034C044C04E8034C044C04E80316
:105148004C044C04E8034C044C04E8034C044C04A1
:10515800E8034C044C04E8034C044C04E8034C04F6
:105168004C04E8034C044C04E8034C044C04E803E6
:105178004C044C04E8034C044C04E8034C044C0471
:10518800E8034C044C04E8034C044C04E8034C04C6
:105198004C04E8034C044C04E8034C044C04E803B6
:1051A8004C044C04E8034C044C04E8034C044C0441
:1051B800E8034C044C04E8034C044C04E8034C0496
:1051C8004C04E8034C044C04E8034C044C04E80386
:1051D8004C044C04E8034C044C04E8034C044C0411
:1051E800E8034C044C04E8034C044C04E8034C0466
:1051F8004C04E8034C044C04E8034C044C04E80356
:105208004C044C04E8034C044C04E8034C044C04E0
:10521800E8034C044C04E8034C044C04E8034C0435
:105228004C04E8034C044C04E8034C044C04E80325
:105238004C044C04E8034C044C04E8034C044C04B0
:10524800E8034C044C04E8034C044C04E8034C0405
:105258004C04E8034C044C04E8034C044C04E803F5
:105268004C044C04E8034C044C04E8034C044C0480
:10527800E8034C044C04E8034C044C04E8034C04D5
:105288004C04E8034C044C04E8034C044C04E803C5
:105298004C044C04E8034C044C04E8034C044C0450
:1052A800E8034C044C04E8034C044C04E8034C04A5
:1052B8004C04E8034C044C04E8034C044C04E80395
:1052C8004C044C04E8034C044C04E803B004B00458
:1052D800E803B004B004E803B004B004E803B00481
:1052E800B004E803B004B004E803B004B004E80371
:1052F800B004B004E803B004B004E803B004B00498
:10530800E803B004B004E803B004B004E803B00450
:10531800B004E803B004B004E803B004B004E80340
:10532800B004B004E803B004B004E803B004B00467
:10533800E803B004B004E803B004B004E803B00420
:10534800B004E803B004B004E803B004B004E80310
:10535800B004B004E803B004B004E803B004B00437
:10536800E803B004B004E803B004B004E803B004F0
:10537800B004E803B004B004E803B004B004E803E0
:10538800B004B004E803B004B004E803B004B00407
:10539800E803B004B004E803B004B004E803B004C0
:1053A800B004E803B004B004E803B004B004E803B0
:1053B800B004B004E803B004B004E803B004B004D7
:1053C800E803B004B004E803B004B004E803B00490
:1053D800B004E803B004B004E803B004B004E80380
:1053E800B004B004E803B004B004E803B004B004A7
:1053F800E803B004B004E803B004B004E803B00460
:10540800B004E803B004B004E803B004B004E8034F
:10541800B004B004E803B004B004E803B004B00476
:10542800E803B004B004E803B004B004E803B0042F
:10543800B004E803B004B004E803B004B004E8031F
:10544800B004B004E803B004B004E803B004B00446
:10545800E803B004B004E803B004B004E803B004FF
:10546800B004E803B004B004E803B004B004E803EF
:10547800B004B004E803B004B004E803B004B00416
:10548800E803B004B004E803B004B004E803B004CF
:10549800B004E803B004B004E803B004B004E803BF
:1054A800B004B004E803B004B004E803B004B004E6
:1054B800E803B004B004E803B004B004E803B0049F
:1054C800B004E803B004B004E803B004B004E8038F
:1054D800B004B004E803B004B004E803B004B004B6
:1054E800E803B004B004E803B004B004E803B0046F
:1054F800B004E803B004B004E803B004B004E8035F
:10550800B004B004E803B004B004E803B004B00485
:10551800E803B004B004E803B004B004E803B0043E
:10552800B004E80314051405E80314051405E8039A
:1055380014051405E80314051405E80314051405F7
:10554800E80314051405E80314051405E803140515
:105558001405E80314051405E80314051405E80305
:1055680014051405E80314051405E80314051405C7
:10557800E80314051405E80314051405E8031405E5
:105588001405E80314051405E80314051405E803D5
:1055980014051405E80314051405E8031405140597
:1055A800E80314051405E80314051405E8031405B5
:1055B8001405E80314051405E80314051405E803A5
:1055C80014051405E80314051405E8031405140567
:1055D800E80314051405E80314051405E803140585
:1055E8001405E80314051405E80314051405E80375
:1055F80014051405E80314051405E8031405140537
:10560800E80314051405E80314051405E803140554
:105618001405E80314051405E80314051405E80344
:1056280014051405E80314051405E8031405140506
:10563800E80314051405E80314051405E803140524
:105648001405E80314051405E80314051405E80314
:1056580014051405E80314051405E80314051405D6
:10566800E80314051405E80314051405E8031405F4
:105678001405E80314051405E80314051405E803E4
:1056880014051405E80314051405E80314051405A6
:10569800E80314051405E80314051405E8031405C4
:1056A8001405E80314051405E80314051405E803B4
:1056B80014051405E80314051405E8031405140576
:1056C800E80314051405E80314051405E803140594
:1056D8001405E80314051405E80314051405E80384
:1056E80014051405E80314051405E8031405140546
:1056F800E80314051405E80314051405E803140564
:105708001405E80314051405E80314051405E80353
:1057180014051405E80314051405E8031405140515
:10572800E80314051405E80314051405E803140533
:105738001405E80314051405E80314051405E80323
:1057480014051405E80314051405E80314051405E5
:10575800E80314051405E80314051405E803140503
:105768001405E80314051405E80314051405E803F3
:1057780014051405E80314051405E80378057805ED
:10578800E80378057805E80378057805E8037805DF
:105798007805E80378057805E80378057805E803CF
:1057A80078057805E80378057805E803780578052D
:1057B800E80378057805E80378057805E8037805AF
:1057C8007805E80378057805E80378057805E8039F
:1057D80078057805E80378057805E80378057805FD
:1057E800E80378057805E80378057805E80378057F
:1057F8007805E80378057805E80378057805E8036F
:1058080078057805E80378057805E80378057805CC
:10581800E80378057805E80378057805E80378054E
:105828007805E80378057805E80378057805E8033E
:1058380078057805E80378057805E803780578059C
:10584800E80378057805E80378057805E80378051E
:105858007805E80378057805E80378057805E8030E
:1058680078057805E80378057805E803780578056C
:10587800E80378057805E80378057805E8037805EE
:105888007805E80378057805E80378057805E803DE
:1058980078057805E80378057805E803780578053C
:1058A800E80378057805E80378057805E8037805BE
:1058B8007805E80378057805E80378057805E803AE
:1058C80078057805E80378057805E803780578050C
:1058D800E80378057805E80378057805E80378058E
:1058E8007805E80378057805E80378057805E8037E
:1058F80078057805E80378057805E80378057805DC
:10590800E80378057805E80378057805E80378055D
:105918007805E80378057805E80378057805E8034D
:1059280078057805E80378057805E80378057805AB
:10593800E80378057805E80378057805E80378052D
:105948007805E80378057805E80378057805E8031D
:1059580078057805E80378057805E803780578057B
:10596800E80378057805E80378057805E8037805FD
:105978007805E80378057805E80378057805E803ED
:1059880078057805E80378057805E803780578054B
:10599800E80378057805E80378057805E8037805CD
:1059A8007805E80378057805E80378057805E803BD
:1059B80078057805E80378057805E803780578051B
:1059C800E80378057805E80378057805E80378059D
:1059D8007805E803DC05DC05E803DC05DC05E803FD
:1059E800DC05DC05E803DC05DC05E803DC05DC0593
:1059F800E803DC05DC05E803DC05DC05E803DC0579
:105A0800DC05E803DC05DC05E803DC05DC05E80368
:105A1800DC05DC05E803DC05DC05E803DC05DC0562
:105A2800E803DC05DC05E803DC05DC05E803DC0548
:105A3800DC05E803DC05DC05E803DC05DC05E80338
:105A4800DC05DC05E803DC05DC05E803DC05DC0532
:105A5800E803DC05DC05E803DC05DC05E803DC0518
:105A6800DC05E803DC05DC05E803DC05DC05E80308
:105A7800DC05DC05E803DC05DC05E803DC05DC0502
:105A8800E803DC05DC05E803DC05DC05E803DC05E8
:105A9800DC05E803DC05DC05E803DC05DC05E803D8
:105AA800DC05DC05E803DC05DC05E803DC05DC05D2
:105AB800E803DC05DC05E803DC05DC05E803DC05B8
:105AC800DC05E803DC05DC05E803DC05DC05E803A8
:105AD800DC05DC05E803DC05DC05E803DC05DC05A2
:105AE800E803DC05DC05E803DC05DC05E803DC0588
:105AF800DC05E803DC05DC05E803DC05DC05E80378
:105B0800DC05DC05E803DC05DC05E803DC05DC0571
:105B1800E803DC05DC05E803DC05DC05E803DC0557
:105B2800DC05E803DC05DC05E803DC05DC05E80347
:105B3800DC05DC05E803DC05DC05E803DC05DC0541
:105B4800E803DC05DC05E803DC05DC05E803DC0527
:105B5800DC05E803DC05DC05E803DC05DC05E80317
:105B6800DC05DC05E803DC05DC05E803DC05DC0511
:105B7800E803DC05DC05E803DC05DC05E803DC05F7
:105B8800DC05E803DC05DC05E803DC05DC05E803E7
:105B9800DC05DC05E803DC05DC05E803DC05DC05E1
:105BA800E803DC05DC05E803DC05DC05E803DC05C7
:105BB800DC05E803DC05DC05E803DC05DC05E803B7
:105BC800DC05DC05E803DC05DC05E803DC05DC05B1
:105BD800E803DC05DC05E803DC05DC05E803DC0597
:105BE800DC05E803DC05DC05E803DC05DC05E80387
:105BF800DC05DC05E803DC05DC05E803DC05DC0581
:105C0800E803DC05DC05E803DC05DC05E803DC0566
:105C1800DC05E803DC05DC05E803DC05DC05E80356
:105C2800DC05DC05E803DC05DC05E8034006400686
:105C3800E80340064006E80340064006E80340063D
:105C48004006E80340064006E80340064006E8032D
:105C580040064006E80340064006E80340064006C2
:105C6800E80340064006E80340064006E80340060D
:105C78004006E80340064006E80340064006E803FD
:105C880040064006E80340064006E8034006400692
:105C9800E80340064006E80340064006E8034006DD
:105CA8004006E80340064006E80340064006E803CD
:105CB80040064006E80340064006E8034006400662
:105CC800E80340064006E80340064006E8034006AD
:105CD8004006E80340064006E80340064006E8039D
